:020000040800F2
:10000000380500200101000895050008A704000834
:1000100091050008490100087F1100080000000058
:10002000000000000000000000000000D5070008EC
:10003000870300080000000009060008E90800081E
:100040001B0100081B0100081B0100081B01000820
:100050001B0100081B0100081B0100081B01000810
:100060001B0100081B0100081B0100081B01000800
:100070004D0100081B0100081B0100081B010008BE
:100080001B0100081B0100081B0100081B010008E0
:100090001B0100081B0100081B0100081B010008D0
:1000A0001B0100081B0100081B0100081B010008C0
:1000B0004D0900081B0100081B0100081B01000876
:1000C0001B0100081B0100081B0100081B010008A0
:1000D0001B010008C10D00081B010008C90F000822
:1000E0001B0100081B0100081B010008DFF80CD0F1
:1000F00000F018F800480047751400083805002083
:100100000648804706480047FEE7FEE7FEE7FEE7B1
:10011000FEE7FEE7FEE7FEE7FEE7FEE7ED08000884
:10012000ED000008064C074D06E0E06840F00103D2
:1001300094E8070098471034AC42F6D3FFF7DAFF93
:100140002C1700084C17000800BFFEE710B5202050
:1001500000F0DCF828B1002002490870202000F0EF
:1001600011F810BD6900002000F0805111B1034961
:10017000086001E002494860704700000404024042
:100180000000024000F0805111B10349086001E015
:100190000249486070470000040402400000024029
:1001A00021B1026842F00102026004E002684FF6E9
:1001B000FE731A400260704701684FF6FE721140EC
:1001C00001600021016041608160C1604B4988424B
:1001D00008D14A490839496841F00F01474A083AAD
:1001E00051608AE045491431884208D143490839B1
:1001F000496841F0F001414A083A51607DE03F49C9
:100200002831884208D13D490839496841F4706174
:100210003A4A083A516070E038493C31884208D186
:1002200036490839496841F47041344A083A516006
:1002300063E032495031884208D130490839496871
:1002400041F470212D4A083A516056E02B4964313F
:10025000884208D129490839496841F47001274A80
:10026000083A516049E025497831884208D123494C
:100270000839496841F07061204A083A51603CE011
:100280001F49884206D1011F096841F00F01021F72
:10029000116032E01A491431884208D11849091F07
:1002A000096841F0F001164A121F116025E0144957
:1002B0002831884208D11249091F096841F4706148
:1002C0000F4A121F116018E00D493C31884208D1D5
:1002D0000B49091F096841F47041094A121F116056
:1002E0000BE007495031884207D10549091F0968C9
:1002F00041F47021024A121F116070470800024049
:10030000080402400146486880B270470146002058
:10031000002201F0805313B1054B1A6801E0054B30
:100320001A6802EA01030BB1012000E000207047C7
:1003300000040240000002401AB103680B4303604E
:1003400002E003688B430360704710B50022026827
:1003500047F6F0739A430C6A8B6823430C69234376
:100360004C6923438C692343CC6923434C6A234360
:100370008C6A23431A430260CB6843600B68836036
:100380004B68C36010BD70472DE9F041024600255F
:100390000026002000230024002791F803C00CF061
:1003A0000F0591F803C00CF0100CBCF1000F03D046
:1003B00091F802C04CEA050591F800C0BCF1000FAD
:1003C00031D0146800202BE04FF0010C0CFA00F340
:1003D000B1F800C00CEA03069E4220D183004FF022
:1003E0000F0C0CFA03F7BC4305FA03FC4CEA0404B7
:1003F00091F803C0BCF1280F06D14FF0010C0CFAA4
:1004000000FCC2F814C00AE091F803C0BCF1480F28
:1004100005D14FF0010C0CFA00FCC2F810C0401CD2
:100420000828D1D31460B1F800C0BCF1FF0F34DD4F
:10043000546800202EE000F1080C4FF0010808FA83
:100440000CF3B1F800C00CEA03069E4221D18300F0
:100450004FF00F0C0CFA03F7BC4305FA03FC4CEA0F
:10046000040491F803C0BCF1280F05D100F1080C79
:1004700008FA0CF8C2F8148091F803C0BCF1480FD8
:1004800007D100F1080C4FF0010808FA0CF8C2F887
:100490001080401C0828CED35460BDE8F081416133
:1004A00070470161704700BFFEE7000010B51B48B0
:1004B000007808B31A48006838B119480830006855
:1004C00018B117480C300068B0B9052000F0D8FE0C
:1004D0000020124908701248006808B9012010BDB8
:1004E0000F480830006808B90220F8E70C480C30C3
:1004F000006888B90320F2E70948006801280BD199
:10050000074808300068012806D105480C3000680B
:10051000012801D1014908700020E0E7A000002077
:100520001881214210B519480088012804D00228FA
:100530000FD0032827D119E000F0B2FF642140F664
:10054000B83000F003FF642140F28B6000F0DEFE63
:100550001AE000F0A5FF642140F6B83000F0F6FE86
:10056000642140F28B6000F0D1FE0DE000F098FFB6
:10057000642140F6B83000F0E9FE642140F28B605F
:1005800000F0C4FE00E000BF00BF10BD100000205E
:1005900000BFFEE77047000070B5002100230F2266
:1005A000C47804B3154C246804F4E064C4F5E06432
:1005B000210AC1F10403CA40447804FA03F18478A3
:1005C0001440214309010E4C0678A155047804F02B
:1005D0001F050124AC4005786D11AD0005F1E02543
:1005E000C5F8004109E0047804F01F050124AC407F
:1005F000044D0678761145F8264070BD0CED00E0FC
:1006000000E400E080E100E07047000029B1064A04
:10061000D2690243044BDA6104E0034AD26982439F
:10062000014BDA61704700000010024029B1064A10
:1006300092690243044B9A6104E0034A926982433F
:10064000014B9A61704700000010024010B500F0A5
:100650002BF8012000F080F800BF212000F04AF8BC
:100660000028FAD0002000F06BF8002000F086F897
:100670004FF4A06000F076F84FF42011002000F055
:100680008FF8012000F086F800BF392000F032F822
:100690000028FAD0022000F091F800BF00F048F8DE
:1006A0000828FBD110BD00000F48006840F0010091
:1006B0000D490860084640680C4908400A494860EE
:1006C000084600680A49084007490860084600686B
:1006D00020F4802008600846406820F4FE0048604E
:1006E0004FF41F0088607047001002400000FFF8C0
:1006F000FFFFF6FE10B501460022002300204A113C
:10070000012A02D1094C236806E0022A02D1074CD3
:10071000236A01E0054C636A01F01F020124944042
:100720001C400CB1012000E0002010BD0010024070
:100730000248406800F00C007047000000100240C2
:1007400001460020034A506820F0F0000843506042
:100750007047000000100240014908607047000027
:100760000000424201460020034A506820F4E06045
:10077000084350607047000000100240014600200E
:10078000034A506820F4605040EAC100506070474E
:100790000010024001490866704700000000424214
:1007A00002460020044B586820F47C1042EA010302
:1007B0001843014B5860704700100240014600206A
:1007C000034A506820F0030008435060704700005F
:1007D00000100240704710B500F002F810BD000094
:1007E0000CB50020019000903348006840F4803040
:1007F0003149086000BF3048006800F400300090C4
:100800000198401C0190009818B90198B0F5A06FAC
:10081000F1D12948006800F4003010B101200090A7
:1008200001E0002000900098012843D1234800688F
:1008300040F01000214908600846006820F00300DD
:1008400008600846006840F0010008601A484068E7
:10085000194948600846406848600846406840F4C6
:10086000806048600846406820F47C104860084674
:10087000406840F4881048600846006840F0807086
:10088000086000BF0C48006800F000700028F9D034
:100890000948406820F0030007494860084640685E
:1008A00040F00200486000BF0348406800F00C00C0
:1008B0000828F9D10CBD00000010024000200240C1
:1008C000042808D14FF0E021096941F004014FF0FC
:1008D000E022116107E04FF0E021096921F00401F5
:1008E0004FF0E022116170477047000010B51348C7
:1008F000006840F00100114908600846406810494E
:1009000008400E494860084600680E4908400B49F7
:1009100008600846006820F48020086008464068A7
:1009200020F4FE0048604FF41F008860FFF753FF7B
:100930004FF000600449086010BD00000010024044
:100940000000FFF8FFFFF6FE08ED00E010B5022101
:10095000480700F0B1F898B10221480700F094F878
:1009600000220221480700F0B8F80021354800F0C5
:10097000CCF900203449087001203449087037E070
:100980000421080700F098F8B8B10421080700F026
:100990007BF800220421080700F09FF82C4800781B
:1009A000012803D00021274800F0B1F9002029498F
:1009B00008700120284908701AE00821C80600F0D4
:1009C0007BF8A8B10821C80600F05EF800220821D3
:1009D000C80600F082F800202049087020480078FE
:1009E00018B90021174800F094F901201D4908703A
:1009F0000821C80600F060F810B30821C80600F00E
:100A000043F84FF0804000F051F81749088017482C
:100A1000008840F6F431884209DA14480088401C06
:100A20001249088008460188064800F06EF90E4811
:100A3000008800F57A7081B24FF0804000F069F9CB
:100A400010BD0000000400402C0000202800002001
:100A50007C0000202D000020290000202E00002016
:100A60002B0000202A00002030000020320000204F
:100A700021B1028842F08002028004E002884FF631
:100A80007F731A4002807047CA430282704721B1C7
:100A9000028842F00102028004E002884FF6FE73F1
:100AA0001A40028070470146088F70470146888FC0
:100AB00070470146888C704730B5024600200023FD
:100AC0000024158A05EA0103958905EA010413B19A
:100AD0000CB1012000E0002030BD1AB183890B4326
:100AE000838102E083898B438381704770B5002442
:100AF00000220023058C4FF6FE7635400584028CDB
:100B00008388048B4FF68F752C40B51E2C400D88C2
:100B10002C43751E2A400D892A434D882A43144DC3
:100B2000A8420BD0134DA84208D0134DA84205D0BF
:100B3000124DA84202D0124DA84213D14FF6F775BC
:100B40002A404D892A434FF6FB752A408D882A4357
:100B50004FF6FF652B404FF6FF552B408D892B43F9
:100B6000CD892B4383800483CD888586028470BD24
:100B7000002C01400034014000400140004401408D
:100B8000004801400A460021018B4FF6F7731940D7
:100B9000114301837047000070B500240022002338
:100BA000058C4FF6EF7635400584028C8388048BE4
:100BB00048F6FF752C404FF6FF452C400D884FF648
:100BC000FF7606EA05252C434FF6DF752A400D898E
:100BD00006EA05152A434D8806EA05152A43154DF0
:100BE000A84202D0144DA8421DD14FF67F752A406D
:100BF0004D894FF6FF7606EA05152A434FF6BF7575
:100C00002A408D8806EA05152A434FF6FF352B400A
:100C10004FF2FF752B408D8906EA85052B43CD8960
:100C200006EA85052B4383800483CD8805870284EB
:100C300070BD0000002C0140003401400A46002134
:100C4000018B4FF2FF7319404FF6FF7303EA022343
:100C5000194301837047000070B50024002200236F
:100C6000058C4FF6FF6635400584028C8388848BA3
:100C70004FF68F752C404FF6FC752C400D882C4399
:100C80004FF6FF552A400D894FF6FF7606EA0525F7
:100C90002A434D8806EA05252A43154DA84202D06D
:100CA000144DA8421DD14FF2FF752A404D894FF6D1
:100CB000FF7606EA05252A434FF6FF352A408D8840
:100CC00006EA05252A434EF6FF752B404DF6FF75C3
:100CD0002B408D8906EA05152B43CD8906EA0515BB
:100CE0002B4383808483CD888587028470BD000078
:100CF000002C0140003401400A460021818B4FF650
:100D0000F7731940114381837047818670470187CB
:100D100070478187704781847047000000220288F5
:100D20001D4B98420ED01D4B98420BD0B0F1804F16
:100D300008D01B4B984205D01A4B984202D01A4B50
:100D4000984204D14FF68F731A404B881A43174BC1
:100D5000984207D0164B984204D04FF6FF431A40F2
:100D6000CB881A4302808B8883850B8803850A4BC6
:100D700098420BD0094B984208D00E4B984205D0B0
:100D80000D4B984202D00D4B984201D10B7A03864D
:100D90000123838270470000002C01400034014091
:100DA0000004004000080040000C0040001000401B
:100DB0000014004000400140004401400048014050
:100DC00070B5002640F224416D4800F0AEF90028CD
:100DD0007ED06B4800886A48001D00880021694861
:100DE000FFF7DEF96748FFF78DFAC0F12C00C6B2B5
:100DF0006548007850B9654C2C2062495839C8655F
:100E00006348486601206049087009E0604C2C2066
:100E10005C495839C8655D48486600205A490870E1
:100E200001215848FFF7BCF9212E7DD120785528A3
:100E3000FBD160785128F8D1E07A5528F5D1207B94
:100E40005228F2D1A07D5528EFD1E07D5328ECD176
:100E500050480068401C4F49086001204E49087006
:100E6000607BA17B00EB012000B24C490880E07B55
:100E7000217C00EB012000B248494880607CA17CC5
:100E800000EB012000B245498880207E617E00EBA6
:100E9000012005B2B62095FBF0F000B24049088071
:100EA000A07EE17E00EB012005B2B62095FBF0F0BC
:100EB00000B23B494880207F617F00EB012005B2F2
:100EC000B62095FBF0F000B235498880354800E047
:100ED0004AE0007801282BD1334AB2F90020334B85
:100EE0001B68991A002901DB0A4600E04A420F2AD2
:100EF0000CDC2D4AB2F902202D4B1B68981A0028F1
:100F000001DB024600E042420F2A11DD2948007849
:100F1000401C28490870084600780A2808D1022198
:100F200025A000F053F900E019E0002021490870E5
:100F3000A07FE17F00EB012000B2204908801A4821
:100F4000B0F90000194908601748B0F902001849C3
:100F500008601548B0F904001949086004E0194810
:100F60000068401C174908604FF45A71044800F0AB
:100F7000DCF820B14FF45A71014800F0C7F870BD99
:100F8000003801405800024038000020A400002032
:100F9000D000002050000020390000204000002038
:100FA00046000020640000203A0000205800002085
:100FB0005C000020650000204A4600004C00002034
:100FC000600000205400002070B5002640F224414B
:100FD0003B4800F0AAF8002865D039480088384816
:100FE000001D008800213748FFF7DAF83548FFF781
:100FF00089F9C0F11E00344908703448007850B9AE
:10100000334C1E202F49303948633248C8630120D1
:101010002E49087009E02F4C1E202A4930394863B8
:101020002B48C86300202949087001212548FFF793
:10103000B7F8002503E0605D3044C6B26D1C22485D
:101040000078401EA842F6DC1F480078401E205C55
:10105000B0421FD12078552802D0AA280FD10AE02B
:1010600002201D49087060781C49087002211CA0EC
:1010700000F0ACF80DE001201749087009E01221DA
:1010800018A000F0A3F81C480068401C1A4908602A
:1010900000BF08E00E2119A000F098F8164800687B
:1010A000401C154908604FF45A71054800F03DF89E
:1010B00020B14FF45A71024800F028F870BD0000CA
:1010C00000480040300002406A0000206800002014
:1010D000FC0000201A0100206B0000206C000020A2
:1010E0004F4B000077726F6E675F68656164696E71
:1010F000675F636F6465000070000020697272654D
:1011000067756C61725F64617461000010B50022E4
:10111000002340F66A14A14200D100BF0A12012444
:101120009440A3B2DC43048010BD70B50246002495
:1011300000230025002040F66A16B14200D100BF0E
:10114000C1F3421501F01F03012606FA03F3012D36
:1011500002D19689334006E0022D02D1168A33402F
:1011600001E0968A33400C12012606FA04F4168830
:10117000344013B10CB1012000E0002070BD00BF6D
:10118000FEE702E008C8121F08C1002AFAD1704722
:101190007047002001E001C1121F002AFBD17047F7
:1011A00008B501211020FFF741FA03208DF8020055
:1011B0004FF46040ADF8000010208DF80300694640
:1011C0000148FFF7E1F808BD0010014030B58BB0D1
:1011D00005460C461648FEF7EFFF019503940020E4
:1011E0000790802005900020049006901148009000
:1011F00010200290002008900A904FF4405009906F
:1012000069460B48FFF7A1F81020FEF7ADFF012259
:1012100002210748FFF790F801210548FEF7C0FFBB
:1012200000BF054800780028FBD10BB030BD00009E
:101230001C000240044800406900002010B56FF017
:101240000400FFF73DFB0A4800680A49B0FBF1F0D3
:10125000094908700846007800EB4001C1EBC01056
:101260004FF6FF7101EAC0000449088010BD00007C
:101270001400002000127A009C0000209E00002034
:101280000146114A12884A434FF0E0235A61002276
:101290009A611A46126942F001021A6100BF4FF0CA
:1012A000E022106900F001021AB100F48032002A35
:1012B000F5D04FF0E022126922F001024FF0E02356
:1012C0001A6100229A6170479E00002010B5024604
:1012D0008A4201DD531A00E08B1A4FF4FA7058432A
:1012E00040F23A74B0FBF4F080B210BD10B5024683
:1012F0008A4201DD531A00E08B1A40F6B830584399
:1013000040F23A74B0FBF4F080B210BD2DE9F04128
:1013100004460F4640F26C750020094908702146CA
:1013200008480088FFF7D2FF064600F055F8054848
:10133000048021460448FFF7E8FCBDE8F081000086
:1013400028000020040000200004004070B504467E
:101350000E4600201C49087021461C480088FFF7F3
:10136000C5FF054600F038F819480088A04212DD94
:101370000CE0174801881748FFF7C7FC144800889D
:10138000401E134908800520FFF77AFF10480088A7
:10139000A042EEDC15E00E480088A04211DA0CE015
:1013A0000B4801880B48FFF7B0FC09480088401C37
:1013B000074908800520FFF763FF05480088A04221
:1013C000EEDB0248048070BD2800002004000020ED
:1013D000340000200004004070B504464FF0804007
:1013E000FFF767FB05464FF6FF70401BA0422BDA64
:1013F00000214FF08040FFF78EFC1B48007850B171
:101400004FF08040FFF74FFB401B86B231464FF054
:101410008040FFF77CFC1548007850B14FF08040C9
:10142000FFF744FB401B86B231464FF08040FFF788
:1014300070FC21464FF08040FFF767FC012202213B
:101440004807FFF74AFB0AE0281981B24FF08040B5
:10145000FFF75BFC012202214807FFF73EFB01205A
:101460000349087070BD00002D0000202E000020F0
:101470002C00002000BF00BF00BFFFF7E7F8FFF718
:101480008FFEFFF7DBFE00F039F805E0FFF70EF8FE
:1014900002490880FFF746F8F8E700001000002036
:1014A00010B54FF400511448FEF7F9FF4FF4FA70ED
:1014B000FFF7E6FE4FF400510F48FEF7F2FF4FF43E
:1014C000FA70FFF7DDFE4FF400510B48FEF7E7FF1F
:1014D0004FF4FA70FFF7D4FE4FF400510648FEF7C0
:1014E000E0FF4FF4FA70FFF7CBFE4FF400510248D3
:1014F000FEF7D5FF10BD00000010014000B589B017
:1015000001211020FFF792F801210820FFF78EF843
:1015100001210420FFF78AF801210320FFF776F864
:1015200003208DF822004FF48040ADF820001020F9
:101530008DF8230008A97848FEF726FF4FF4804174
:101540007548FEF7AEFFC020ADF8200018208DF8DA
:10155000230003208DF8220008A97048FEF714FF2D
:101560000120ADF8200018208DF8230003208DF80D
:10157000220008A96A48FEF707FF44F61F60ADF88D
:1015800018001720ADF814000020ADF81A00ADF8CF
:10159000160005A96348FFF7C1FB7020ADF80400F1
:1015A0000220ADF80C000120ADF806000020ADF8D7
:1015B0000A0001A95B48FFF799FA08215948FFF78B
:1015C000E1FA0120ADF806000020ADF80A0001A9FB
:1015D0005448FFF7E1FA08215248FFF72FFB01209A
:1015E000ADF806000020ADF80A0001A94D48FFF74C
:1015F00033FB08214B48FFF77FFB01214948FFF7E8
:1016000037FA01214748FFF742FA4FF6FF70ADF86D
:101610001800454800684FF47A71B0FBF1F0401EA5
:1016200080B2ADF814000020ADF81A00ADF8160035
:1016300005A94FF08040FFF771FB0020ADF80400D2
:10164000ADF80C000120ADF8060040F6B830ADF85A
:101650000A0001A94FF08040FFF748FA002202215A
:101660004807FFF73AFA00214FF08040FFF78AFA67
:101670000120ADF8060040F6B830ADF80A0001A927
:101680004FF08040FFF788FA002204210807FFF797
:1016900024FA00214FF08040FFF7D0FA0120ADF886
:1016A00006004FF47A70ADF80A0001A9C006FFF7F2
:1016B000D3FA00220821C806FFF70FFA00214FF0E5
:1016C0008040FFF719FB0120ADF806004FF47A7057
:1016D000ADF80A0001A9C006FFF7BEFA00221021EA
:1016E0008806FFF7FAF900214FF08040FFF704FB6E
:1016F00001218807FFF7CBF91C208DF8000000209E
:101700008DF8010001208DF802008DF80300684675
:10171000FEF742FF09B000BD001001400008014083
:10172000000C014000040040140000204C17000889
:1017300000000020A400000082110008F01700083B
:10174000A400002094040000921100084F4B0000F8
:101750000000000000000000000000000000000089
:10176000006CDC0200000000000000000102030425
:1017700006070809010101000000000000006C07D5
:101780008B068B0600000000000000000000000037
:101790000000000000000000000000000000000049
:1017A0000000000000000000000000000000000039
:1017B0000100000000000000000000000000000028
:1017C0000000000000000000000000009C500839EC
:1017D0000000000000000000000000000000000009
:1017E00000008B0600000000000000000100000067
:04000005080000ED02
:00000001FF
