:020000040800F2
:100000009005002001010008F90A0008B904000861
:10001000F50A0008490100083B170008000000002D
:10002000000000000000000000000000390D000882
:1000300087030008000000006D0B00089D0E0008FB
:100040001B0100081B0100081B0100081B01000820
:100050001B0100081B0100081B0100081B01000810
:100060001B0100081B0100081B0100081B01000800
:100070004D0100081B0100081B0100081B010008BE
:100080001B0100081B0100081B0100081B010008E0
:100090001B0100081B0100081B0100081B010008D0
:1000A0001B0100081B0100081B0100081B010008C0
:1000B000010F00081B0100081B0100081B010008BC
:1000C0001B0100081B0100081B0100081B010008A0
:1000D0001B0100087D1300081B010008851500089E
:1000E0001B0100081B0100081B010008DFF80CD0F1
:1000F00000F018F800480047511A00089005002049
:100100000648804706480047FEE7FEE7FEE7FEE7B1
:10011000FEE7FEE7FEE7FEE7FEE7FEE7A10E0008CA
:10012000ED000008064C074D06E0E06840F00103D2
:1001300094E8070098471034AC42F6D3FFF7DAFF93
:10014000D4210008F421000800BFFEE710B52020EC
:1001500000F0DCF828B1002002490870202000F0EF
:1001600011F810BDBD00002000F0805111B103490D
:10017000086001E002494860704700000404024042
:100180000000024000F0805111B10349086001E015
:100190000249486070470000040402400000024029
:1001A00021B1026842F00102026004E002684FF6E9
:1001B000FE731A400260704701684FF6FE721140EC
:1001C00001600021016041608160C1604B4988424B
:1001D00008D14A490839496841F00F01474A083AAD
:1001E00051608AE045491431884208D143490839B1
:1001F000496841F0F001414A083A51607DE03F49C9
:100200002831884208D13D490839496841F4706174
:100210003A4A083A516070E038493C31884208D186
:1002200036490839496841F47041344A083A516006
:1002300063E032495031884208D130490839496871
:1002400041F470212D4A083A516056E02B4964313F
:10025000884208D129490839496841F47001274A80
:10026000083A516049E025497831884208D123494C
:100270000839496841F07061204A083A51603CE011
:100280001F49884206D1011F096841F00F01021F72
:10029000116032E01A491431884208D11849091F07
:1002A000096841F0F001164A121F116025E0144957
:1002B0002831884208D11249091F096841F4706148
:1002C0000F4A121F116018E00D493C31884208D1D5
:1002D0000B49091F096841F47041094A121F116056
:1002E0000BE007495031884207D10549091F0968C9
:1002F00041F47021024A121F116070470800024049
:10030000080402400146486880B270470146002058
:10031000002201F0805313B1054B1A6801E0054B30
:100320001A6802EA01030BB1012000E000207047C7
:1003300000040240000002401AB103680B4303604E
:1003400002E003688B430360704710B50022026827
:1003500047F6F0739A430C6A8B6823430C69234376
:100360004C6923438C692343CC6923434C6A234360
:100370008C6A23431A430260CB6843600B68836036
:100380004B68C36010BD70472DE9F041024600255F
:100390000026002000230024002791F803C00CF061
:1003A0000F0591F803C00CF0100CBCF1000F03D046
:1003B00091F802C04CEA050591F800C0BCF1000FAD
:1003C00031D0146800202BE04FF0010C0CFA00F340
:1003D000B1F800C00CEA03069E4220D183004FF022
:1003E0000F0C0CFA03F7BC4305FA03FC4CEA0404B7
:1003F00091F803C0BCF1280F06D14FF0010C0CFAA4
:1004000000FCC2F814C00AE091F803C0BCF1480F28
:1004100005D14FF0010C0CFA00FCC2F810C0401CD2
:100420000828D1D31460B1F800C0BCF1FF0F34DD4F
:10043000546800202EE000F1080C4FF0010808FA83
:100440000CF3B1F800C00CEA03069E4221D18300F0
:100450004FF00F0C0CFA03F7BC4305FA03FC4CEA0F
:10046000040491F803C0BCF1280F05D100F1080C79
:1004700008FA0CF8C2F8148091F803C0BCF1480FD8
:1004800007D100F1080C4FF0010808FA0CF8C2F887
:100490001080401C0828CED35460BDE8F08102468D
:1004A000002093680B400BB1012000E00020704752
:1004B000416170470161704700BFFEE708B5012147
:1004C000082000F065FB4FF47840ADF800004820AC
:1004D0008DF8030069460248FFF756FF08BD00008B
:1004E000000C014010B5044614B101203A490870CF
:1004F0003948007800284BD04FF480713748FFF717
:10050000CEFFB8B14FF400713448FFF7C8FF88B18F
:100510004FF480513148FFF7C2FF58B14FF40051FA
:100520002E48FFF7BCFF28B14FF480412B48FFF75E
:10053000B6FF68BB0A2001F081F900202649087047
:100540004FF480712548FFF7AAFF08B9012010BDBC
:100550004FF400712148FFF7A2FF08B90220F6E727
:100560004FF480511D48FFF79AFF08B90320EEE7CA
:100570004FF400511948FFF792FF08B90420E6E74D
:100580004FF480411548FFF78AFF10BB0520DEE7D6
:100590004FF480711148FFF782FF012819D1410201
:1005A0000E48FFF77CFF012813D101030B48FFF72A
:1005B00076FF01280DD141030848FFF770FF01289D
:1005C00007D181030548FFF76AFF012801D10249DD
:1005D00008700020BBE70000F4000020000C014080
:1005E00010B593480078062841D2DFE800F040803B
:1005F0000341BFFE01F044FB8E480088B0F5487F00
:1006000021DD8C48008864388A4908808A4800685F
:100610008A49096888420BD288480068801F874948
:100620000860854802210268462000F04EF904E087
:1006300081480068801D8049086064217D480088E9
:1006400001F062F90BE040F28B607A4908800020EB
:100650007949086064217748008801F055F97648A7
:1006600003210268462000F030F901F0E5F9DDE0F1
:1006700001F006FB6F48008840F6B831884221DA65
:100680006C48008864306B4908806C4800686A498F
:10069000096888420BD268480068801F6649086074
:1006A000084603210268462000F00FF904E0634881
:1006B0000068801D6149086064215E48008801F07F
:1006C00023F90BE040F28B605A49088000205B4917
:1006D000086064215748008801F016F95748022144
:1006E0000268462000F0F1F801F0A6F99EE001F062
:1006F000C7FA5348008840F6B831884221DA50489A
:10070000008864304E4908804E4800684E490968A8
:1007100088420BD24C480068801F4B49086008464D
:1007200005210268462000F0D0F804E04548006842
:10073000801D4449086064214148008801F0FAF9AD
:100740000BE040F28B603E49088000203D49086084
:1007500064213B48008801F0EDF93A480421026821
:10076000462000F0B2F801F073FA5FE001F088FA79
:1007700033480088B0F5487F21DD3148008864386F
:100780002F490880304800682E49096888420BD2FA
:100790002C480068801F2B49086008460421026825
:1007A000462000F092F804E027480068801D2649A2
:1007B000086064212248008801F0BCF90BE040F297
:1007C0008B601F49088000201F49086064211C4875
:1007D000008801F0AFF91C4805210268462000F0AE
:1007E00074F801F035FA21E0FFE701F049FA6421DD
:1007F00040F28B6001F068F8642140F28B6001F0F8
:100800007DF900220221462000F05FF8002203213A
:10081000462000F05AF800220421462000F055F846
:1008200000220521462000F050F800BF00BF10BD97
:100830000F0000204C000020540000205000002039
:100840004E000020600000206400002010B5002150
:100850000C2000F0FDF80021802000F0F9F80024C1
:1008600005E00121002000F0F3F8601C84B2B4F52B
:10087000FC7FF6DB10BD2DE9F04704460D4690469F
:10088000994600210C2000F0E3F80021802000F0C0
:10089000DFF82E4612E0274609E0F1B2F8B200F088
:1008A00015F90121002000F0D3F8781C87B204EB81
:1008B0000800401CB842F0DC701C86B205EB090051
:1008C000401CB042E7DCBDE8F0872DE9F0478046E8
:1008D0000F4615460024A1462E4625B9F9B230220E
:1008E000404600F02BF804E00A20B6FBF0F6601C4E
:1008F000C4B2002EF8D1A1461BE0601EC1B20A208E
:1009000001F0B2F90646B5FBF6F00A21B0FBF1F2B0
:1009100001FB120000F1300AF9B2A9EB040202EB6C
:10092000420208EB4202D0B2524600F007F8601EC5
:10093000C4B2002CE1D1BDE8F08700002DE9F04100
:1009400006460F4614463946304600F0BFF8A4F17B
:100950002000C4B200250AE004EB4401064A02EB81
:100960004101485D012100F073F8681CC5B2072DF4
:10097000F2DBBDE8F0810000D41E000870B505462A
:100980000E46144610E014F8012B31462846FFF7B6
:10099000D5FFA81DC5B2542D06DD0025701CC6B2BA
:1009A000641E052E00DD002620780028EBD170BDE6
:1009B00008B50121042000F0EBF83E20ADF800005E
:1009C00003208DF8020010208DF8030069460448CA
:1009D000FFF7DAFC00F006F8FFF738FF08BD00006B
:1009E0000008014010B520211848FFF761FD0120E3
:1009F00000F024FF20211548FFF75CFD0221134879
:100A0000FFF758FD012000F019FF02210F48FFF702
:100A10004FFD0021212000F01BF80021C82000F02C
:100A200017F80021062000F013F80021132000F031
:100A30000FF80021202000F00BF800210C2000F01E
:100A400007F8442000F032F810BD00000008014013
:100A500070B504460D46082625B904211248FFF753
:100A600027FD03E004211048FFF724FD15E01021C5
:100A70000D48FFF71DFD04F0800020B108210A4851
:100A8000FFF718FD03E008210748FFF711FD1021CB
:100A90000548FFF70FFD6006040E3000A6F10101C6
:100AA000CEB2E4D170BD00000008014010B504468C
:100AB00000212120FFF7CCFF44F080000021FFF748
:100AC000C7FF00212020FFF7C3FF10BD70B504460B
:100AD0000D46532C00DD5324052D00DD052545F082
:100AE00040000021FFF7B4FF44F080000021FFF731
:100AF000AFFF70BD00BFFEE77047000070B500217A
:100B000000230F22C47804B3154C246804F4E06475
:100B1000C4F5E064210AC1F10403CA40447804FA30
:100B200003F184781440214309010E4C0678A15545
:100B3000047804F01F050124AC4005786D11AD0068
:100B400005F1E025C5F8004109E0047804F01F052F
:100B50000124AC40044D0678761145F8264070BD5E
:100B60000CED00E000E400E080E100E070470000F0
:100B700029B1064AD2690243044BDA6104E0034A10
:100B8000D2698243014BDA617047000000100240D5
:100B900029B1064A92690243044B9A6104E0034A70
:100BA00092698243014B9A61704700000010024035
:100BB00010B500F02BF8012000F080F800BF2120D4
:100BC00000F04AF80028FAD0002000F06BF800206E
:100BD00000F086F84FF4A06000F076F84FF4201192
:100BE000002000F08FF8012000F086F800BF3920C7
:100BF00000F032F80028FAD0022000F091F800BF8F
:100C000000F048F80828FBD110BD00000F4800682C
:100C100040F001000D490860084640680C49084052
:100C20000A494860084600680A49084007490860C0
:100C30000846006820F4802008600846406820F4D8
:100C4000FE0048604FF41F008860704700100240AB
:100C50000000FFF8FFFFF6FE10B50146002200235A
:100C600000204A11012A02D1094C236806E0022A19
:100C700002D1074C236A01E0054C636A01F01F02B0
:100C8000012494401C400CB1012000E0002010BD64
:100C9000001002400248406800F00C00704700005D
:100CA0000010024001460020034A506820F0F00086
:100CB000084350607047000000100240014908607E
:100CC000704700000000424201460020034A50687D
:100CD00020F4E060084350607047000000100240BC
:100CE00001460020034A506820F4605040EAC100E9
:100CF00050607047001002400149086670470000CC
:100D00000000424202460020044B586820F47C1048
:100D100042EA01031843014B58607047001002403B
:100D200001460020034A506820F003000843506049
:100D30007047000000100240704710B500F002F844
:100D400010BD00000CB500200190009033480068F1
:100D500040F480303149086000BF3048006800F43A
:100D6000003000900198401C0190009818B901983B
:100D7000B0F5A06FF1D12948006800F4003010B13F
:100D80000120009001E0002000900098012843D14C
:100D90002348006840F010002149086008460068B8
:100DA00020F0030008600846006840F00100086079
:100DB0001A48406819494860084640684860084633
:100DC000406840F4806048600846406820F47C1029
:100DD00048600846406840F488104860084600684B
:100DE00040F08070086000BF0C48006800F00070A0
:100DF0000028F9D00948406820F0030007494860FE
:100E00000846406840F00200486000BF0348406860
:100E100000F00C000828F9D10CBD000000100240C1
:100E20000020024010B5FFF711FD0D4A00210846D1
:100E3000FFF7A4FD0B4A02210020FFF79FFD0A4A9D
:100E400003210020FFF79AFD084A04210020FFF744
:100E500095FD074A05210020FFF790FD10BD000019
:100E600010000020220000202D000020380000206B
:100E700042000020042808D14FF0E021096941F028
:100E800004014FF0E022116107E04FF0E021096911
:100E900021F004014FF0E02211617047704700001B
:100EA00010B51348006840F0010011490860084679
:100EB0004068104908400E494860084600680E49DD
:100EC00008400B4908600846006820F4802008604C
:100ED0000846406820F4FE0048604FF41F00886018
:100EE000FFF72BFF4FF000600449086010BD0000C1
:100EF000001002400000FFF8FFFFF6FE08ED00E0E2
:100F000010B50221480700F0B4F898B10221480753
:100F100000F094F800220221480700F0BBF80021FD
:100F2000354800F0D0F900203449087001203449D8
:100F3000087037E00421080700F09BF8B8B10421DD
:100F4000080700F07BF800220421080700F0A2F84F
:100F50002C480078012803D00021274800F0B5F97B
:100F60000020294908700120284908701AE008214A
:100F7000C80600F07EF8A8B10821C80600F05EF8A7
:100F800000220821C80600F085F8002020490870DA
:100F90002048007818B90021174800F098F901207E
:100FA0001D4908700821C80600F063F810B3082135
:100FB000C80600F043F84FF0804000F054F817499D
:100FC00008801748008840F6F431884209DA14484E
:100FD0000088401C1249088008460188064800F035
:100FE00072F90E48008800F57A7081B24FF08040A7
:100FF00000F06DF910BD00000004004080000020EA
:101000007C000020D0000020810000207D00002016
:10101000820000207F0000207E000020840000204D
:101020008600002021B1028842F08002028004E0A4
:1010300002884FF67F731A4002807047CA430282CB
:10104000704721B1028842F00102028004E0028868
:101050004FF6FE731A40028070470146888E704733
:101060000146088F70470146888F70470146888C7B
:10107000704730B50246002000230024158A05EA97
:101080000103958905EA010413B10CB1012000E0C8
:10109000002030BD1AB183890B43838102E083892C
:1010A0008B4383817047000070B500240022002329
:1010B000058C4FF6FE7635400584028C8388048BC0
:1010C0004FF68F752C40B51E2C400D882C43751E95
:1010D0002A400D892A434D882A43144DA8420BD03B
:1010E000134DA84208D0134DA84205D0124DA84276
:1010F00002D0124DA84213D14FF6F7752A404D8900
:101100002A434FF6FB752A408D882A434FF6FF6528
:101110002B404FF6FF552B408D892B43CD892B4318
:1011200083800483CD888586028470BD002C0140B5
:1011300000340140004001400044014000480140AB
:101140000A460021018B4FF6F773194011430183C2
:101150007047000070B5002400220023058C4FF674
:10116000EF7635400584028C8388048B48F6FF7542
:101170002C404FF6FF452C400D884FF6FF7606EACF
:1011800005252C434FF6DF752A400D8906EA051523
:101190002A434D8806EA05152A43154DA84202D078
:1011A000144DA8421DD14FF67F752A404D894FF648
:1011B000FF7606EA05152A434FF6BF752A408D884B
:1011C00006EA05152A434FF6FF352B404FF2FF750F
:1011D0002B408D8906EA85052B43CD8906EA8505D6
:1011E0002B4383800483CD880587028470BD000073
:1011F000002C0140003401400A460021018B4FF2CF
:10120000FF7319404FF6FF7303EA0223194301836A
:101210007047000070B5002400220023058C4FF6B3
:10122000FF6635400584028C8388848B4FF68F756A
:101230002C404FF6FC752C400D882C434FF6FF5583
:101240002A400D894FF6FF7606EA05252A434D8888
:1012500006EA05252A43154DA84202D0144DA8429E
:101260001DD14FF2FF752A404D894FF6FF7606EAF1
:1012700005252A434FF6FF352A408D8806EA0525C5
:101280002A434EF6FF752B404DF6FF752B408D8996
:1012900006EA05152B43CD8906EA05152B43838005
:1012A0008483CD888587028470BD0000002C0140B6
:1012B000003401400A460021818B4FF6F773194034
:1012C000114381837047818670470187704781870A
:1012D0007047818470470000002202881D4B9842AD
:1012E0000ED01D4B98420BD0B0F1804F08D01B4B55
:1012F000984205D01A4B984202D01A4B984204D11A
:101300004FF68F731A404B881A43174B984207D0F9
:10131000164B984204D04FF6FF431A40CB881A432D
:1013200002808B8883850B8803850A4B98420BD0FB
:10133000094B984208D00E4B984205D00D4B98426D
:1013400002D00D4B984201D10B7A03860123838290
:1013500070470000002C01400034014000040040B0
:1013600000080040000C0040001000400014004045
:1013700000400140004401400048014070B5002693
:1013800040F224416D4800F0AEF900287ED06B4851
:1013900000886A48001D008800216948FEF700FFA8
:1013A0006748FEF7AFFFC0F12C00C6B26548007871
:1013B00050B9654C2C2062495839C8656348486665
:1013C00001206049087009E0604C2C205C495839C4
:1013D000C8655D48486600205A4908700121584890
:1013E000FEF7DEFE212E7DD120785528FBD16078D6
:1013F0005128F8D1E07A5528F5D1207B5228F2D136
:10140000A07D5528EFD1E07D5328ECD150480068ED
:10141000401C4F49086001204E490870607BA17B49
:1014200000EB012000B24C490880E07B217C00EBFE
:10143000012000B248494880607CA17C00EB01207B
:1014400000B245498880207E617E00EB012005B214
:10145000B62095FBF0F000B240490880A07EE17E06
:1014600000EB012005B2B62095FBF0F000B23B493D
:101470004880207F617F00EB012005B2B62095FBFC
:10148000F0F000B235498880354800E04AE0007845
:1014900001282BD1334AB2F90020334B1B68991A2B
:1014A000002901DB0A4600E04A420F2A0CDC2D4AE3
:1014B000B2F902202D4B1B68981A002801DB024666
:1014C00000E042420F2A11DD29480078401C2849DB
:1014D0000870084600780A2808D1022125A000F0EB
:1014E00053F900E019E0002021490870A07FE17F56
:1014F00000EB012000B2204908801A48B0F9000032
:10150000194908601748B0F90200184908601548E1
:10151000B0F904001949086004E019480068401C4B
:10152000174908604FF45A71044800F0DCF820B104
:101530004FF45A71014800F0C7F870BD00380140FF
:10154000580002408C000020F800002024010020F8
:10155000A40000208D000020940000209A000020AC
:10156000B80000208E000020AC000020B000002059
:10157000B90000204A460000A0000020B40000206E
:10158000A800002070B5002640F224413B4800F03E
:10159000AAF8002865D0394800883848001D00881E
:1015A00000213748FEF7FCFD3548FEF7ABFEC0F1E1
:1015B0001E00344908703448007850B9334C1E205E
:1015C0002F49303948633248C86301202E490870DA
:1015D00009E02F4C1E202A49303948632B48C86344
:1015E00000202949087001212548FEF7D9FD002572
:1015F00003E0605D3044C6B26D1C22480078401E96
:10160000A842F6DC1F480078401E205CB0421FD183
:101610002078552802D0AA280FD10AE002201D49BF
:10162000087060781C49087002211CA000F0ACF81A
:101630000DE001201749087009E0122118A000F000
:10164000A3F81C480068401C1A49086000BF08E065
:101650000E2119A000F098F816480068401C1549A2
:1016600008604FF45A71054800F03DF820B14FF47E
:101670005A71024800F028F870BD00000048004090
:1016800030000240BE000020BC00002050010020BD
:101690006E010020BF000020C00000204F4B000062
:1016A00077726F6E675F68656164696E675F636FAD
:1016B00064650000C40000206972726567756C6122
:1016C000725F64617461000010B50022002340F66F
:1016D0006A14A14200D100BF0A1201249440A3B2AF
:1016E000DC43048010BD70B50246002400230025B1
:1016F000002040F66A16B14200D100BFC1F3421586
:1017000001F01F03012606FA03F3012D02D1968989
:10171000334006E0022D02D1168A334001E0968A5A
:1017200033400C12012606FA04F41688344013B133
:101730000CB1012000E0002070BD00BFFEE702E018
:1017400008C8121F08C1002AFAD17047704700204C
:1017500001E001C1121F002AFBD1704708B5012129
:101760001020FFF715FA03208DF802004FF46040B7
:10177000ADF8000010208DF8030069460148FEF71F
:1017800003FE08BD0010014030B58BB005460C4685
:101790001648FEF711FD0195039400200790802064
:1017A00005900020049006901148009010200290AF
:1017B000002008900A904FF44050099069460B4869
:1017C000FEF7C3FD1020FEF7CFFC012202210748DF
:1017D000FEF7B2FD01210548FEF7E2FC00BF054817
:1017E00000780028FBD10BB030BD00001C00024087
:1017F00004480040BD00002010B56FF00400FFF762
:1018000039FB0A4800680A49B0FBF1F00949087041
:101810000846007800EB4001C1EBC0104FF6FF71A5
:1018200001EAC0000449088010BD000068000020E3
:1018300000127A00F0000020F20000200146114A58
:1018400012884A434FF0E0235A6100229A611A46F7
:10185000126942F001021A6100BF4FF0E0221069E4
:1018600000F001021AB100F48032002AF5D04FF0E6
:10187000E022126922F001024FF0E0231A610022F7
:101880009A617047F200002010B502468A4201DDDD
:10189000531A00E08B1A4FF4FA70584340F23A742E
:1018A000B0FBF4F080B210BD10B502468A4201DDF3
:1018B000531A00E08B1A40F6B830584340F23A749D
:1018C000B0FBF4F080B210BD2DE9F04104460F46A4
:1018D00040F26C75002009490870214608480088CC
:1018E000FFF7D2FF064600F059F80548048021466C
:1018F0000448FFF7E8FCBDE8F08100007C00002010
:10190000040000200004004070B504460E4600208C
:101910001E49087021461E480088FFF7C5FF05468E
:1019200000F03CF81B480088A04212DD0CE019488A
:1019300001881948FFF7C7FC16480088401E154962
:1019400008800520FFF77AFF12480088A042EEDCED
:1019500015E010480088A04211DA0CE00D4801881B
:101960000D48FFF7B0FC0B480088401C094908806F
:101970000520FFF763FF07480088A042EEDB04481C
:10198000048001200149087070BD00007C00002027
:1019900004000020880000200004004070B50446C8
:1019A0004FF08040FFF762FB05464FF6FF70401B8B
:1019B000A0422BDA00214FF08040FFF78AFC1B4841
:1019C000007850B14FF08040FFF74AFB401B86B2D1
:1019D00031464FF08040FFF778FC1548007850B151
:1019E0004FF08040FFF73FFB401B86B231464FF07F
:1019F0008040FFF76CFC21464FF08040FFF763FC0E
:101A0000012202214807FFF745FB0AE0281981B2AD
:101A10004FF08040FFF757FC012202214807FFF7F3
:101A200039FB01200349087070BD000081000020CF
:101A3000820000208000002010B5002003490870BB
:101A4000002202214807FFF725FB10BD800000207F
:101A500000BF00BF00BFFFF7ABF8FFF77FFEFFF747
:101A6000CBFEFEF72BFD00F01DF9FEF7A1FFFFF7FF
:101A7000D9F90423502219463C20FEF7FCFE00222F
:101A800002214620FEF721FF002203214620FEF717
:101A90001CFF002204214620FEF717FF002205212B
:101AA0004620FEF712FF06E00020FEF71BFD02496C
:101AB0000870FEF795FDF7E70F00002010B502460D
:101AC0000D480078022802D140F6C41010BD0A4823
:101AD0000078012802D14FF4FA70F7E78A4201DD5D
:101AE000531A00E08B1A4FF47A70584340F23A745C
:101AF000B0FBF4F080B2E9E7D000002070B50446F6
:101B00000E46002008490870214608480088FFF763
:101B1000D5FF054600F054F80448048021460448E7
:101B2000FFF7D3FB70BD00007D0000200600002001
:101B30000004004070B504460E4600201C490870A1
:101B400021461C480088FFF7AFFE054600F038F834
:101B500019480088A04212DD0CE017480188174898
:101B6000FFF7B3FB14480088401E13490880052086
:101B7000FFF764FE10480088A042EEDC15E00E4836
:101B80000088A04211DA0CE00B4801880B48FFF7EF
:101B90009CFB09480088401C074908800520FFF786
:101BA0004DFE05480088A042EEDB0248048070BD6F
:101BB0007D000020060000208A0000200004004074
:101BC00070B504464FF08040FFF750FA05464FF6D7
:101BD000FF70401BA0422BDA00214FF08040FFF73E
:101BE00078FB1948007850B14FF08040FFF735FA84
:101BF000401B86B231464FF08040FFF764FB13482C
:101C0000007850B14FF08040FFF72DFA401B86B2AC
:101C100031464FF08040FFF75AFB21464FF080409D
:101C2000FFF753FB012204210807FFF733FA0AE00C
:101C3000281981B24FF08040FFF747FB01220421B1
:101C40000807FFF727FA70BD8000002082000020FF
:101C500010B5002003490870002204210807FFF78F
:101C600019FA10BD8100002010B50246012000E0E5
:101C700050430B00A1F10104E1B2F9D110BD000005
:101C800010B54FF400510648FEF714FC6420FFF72E
:101C9000D5FD4FF400510248FEF70AFC10BD0000CC
:101CA0000010014000B589B001211020FEF770FF3F
:101CB00001210820FEF76CFF01210420FEF768FFD8
:101CC00001210320FEF754FF03208DF822004FF47A
:101CD0008040ADF8200010208DF8230008A9784836
:101CE000FEF752FB4FF480417548FEF7E3FBC0203E
:101CF000ADF8200018208DF8230003208DF8220075
:101D000008A97048FEF740FB0120ADF8200018201C
:101D10008DF8230003208DF8220008A96A48FEF7F9
:101D200033FB44F61F60ADF818001720ADF814001F
:101D30000020ADF81A00ADF8160005A96348FFF7BA
:101D4000CBFA7020ADF804000220ADF80C000120A1
:101D5000ADF806000020ADF80A0001A95B48FFF7C6
:101D6000A3F908215948FFF7EBF90120ADF8060067
:101D70000020ADF80A0001A95448FFF7EBF908214B
:101D80005248FFF739FA0120ADF806000020ADF8FF
:101D90000A0001A94D48FFF73DFA08214B48FFF71B
:101DA00089FA01214948FFF73DF901214748FFF72A
:101DB00048F94FF6FF70ADF81800454800684FF439
:101DC0007A71B0FBF1F0401E80B2ADF81400002033
:101DD000ADF81A00ADF8160005A94FF08040FFF7E6
:101DE0007BFA0020ADF80400ADF80C000120ADF83E
:101DF000060040F6B830ADF80A0001A94FF0804067
:101E0000FFF752F9002202214807FFF743F90021AA
:101E10004FF08040FFF794F90120ADF8060040F63E
:101E2000B830ADF80A0001A94FF08040FFF792F9F1
:101E3000002204210807FFF72DF900214FF0804010
:101E4000FFF7DAF90120ADF806004FF47A70ADF82B
:101E50000A0001A9C006FFF7DDF900220821C80623
:101E6000FFF718F900214FF08040FFF723FA012017
:101E7000ADF806004FF47A70ADF80A0001A9C0066B
:101E8000FFF7C8F9002210218806FFF703F90021A7
:101E90004FF08040FFF70EFA01218807FFF7D1F8D5
:101EA0001C208DF8000000208DF8010001208DF825
:101EB00002008DF803006846FEF720FE09B000BD61
:101EC0000010014000080140000C014000040040E7
:101ED000680000200000000000000000002F00004B
:101EE00000000700070000147F147F1400242A7FDD
:101EF0002A1200626408132300364955225000005C
:101F00000503000000001C224100000041221C00CB
:101F10000014083E08140008083E0808000000A04D
:101F20006000000808080808000060600000002049
:101F300010080402003E5149453E0000427F400027
:101F4000004261514946002141454B3100181412AD
:101F50007F10002745454539003C4A49493000017A
:101F60007109050300364949493600064949291EC9
:101F7000000036360000000056360000000814222B
:101F8000410000141414141400004122140800022B
:101F90000151090600324959513E007C1211127C50
:101FA000007F49494936003E41414122007F41417D
:101FB000221C007F49494941007F09090901003E6F
:101FC0004149497A007F0808087F0000417F4100AD
:101FD000002040413F01007F08142241007F404023
:101FE0004040007F020C027F007F0408107F003E0B
:101FF0004141413E007F09090906003E4151215EF1
:10200000007F091929460046494949310001017FED
:102010000101003F4040403F001F2040201F003F83
:102020004038403F00631408146300070870080735
:1020300000615149454300007F41410000552A5548
:102040002A55000041417F000004020102040040C3
:1020500040404040000001020400002054545478E5
:10206000007F484444380038444444200038444405
:10207000487F00385454541800087E0901020018A3
:10208000A4A4A47C007F080404780000447D4000E0
:10209000004080847D00007F102844000000417FC4
:1020A0004000007C04180478007C080404780038A0
:1020B0004444443800FC242424180018242418FC28
:1020C000007C0804040800485454542000043F4491
:1020D0004020003C4040207C001C2040201C003C54
:1020E0004030403C004428102844001CA0A0A07CA4
:1020F000004464544C441414141414148445F62CF1
:10210000C15D55D5555DC1000000070007050507F5
:1021100005050700B22AE688AAAAFFAAAABE880077
:10212000040302040404070404040400FC00FF0088
:10213000F90909FF0909F90004020100010000077B
:1021400000010100224A926702F2129792F2020005
:102150000107000000070404040407000808080839
:10216000C83FC808080C0800040402010000000170
:10217000020404009C84959695D6B49487948C00B0
:1021800000000004040700000000000004040484B0
:102190007C151614F406040004040201000404046F
:1021A0000300000010111111D13FD11111111000C5
:1021B000040402010000000102040400182A2A2E6F
:1021C000FAAEA9ADAB291800040402050502020508
:1021D00004040400F421000800000020F8000000BE
:1021E0003E170008EC220008F800002098040000C8
:1021F0004E1700084F4B00000000000000000000D8
:1022000000000000414E54454E4E4120524F544173
:10221000544500000000686561645F6C6566743A4F
:1022200000686561645F72696768743A6D69645FCC
:102230006C6566743A006D69645F72696768743AC8
:102240008B068B060000000000000000000000006C
:10225000000000000000000000000000006CDC0234
:102260000000000000000000010203040607080946
:10227000010101000000000000006C078B068B06C6
:10228000000000000000000000000000000000004E
:10229000000000000000000000000000000000003E
:1022A000000000000000000000000000010000002D
:1022B000000000000000000000000000000000001E
:1022C00000000000000000009C50083900000000E1
:1022D00000000000000000000000000000008B066D
:0C22E000000000000000000001000000F1
:04000005080000ED02
:00000001FF
